:020000040001F9
:10600000483400201D650100376501003965010035
:106010000000000000000000000000000000000080
:106020000000000000000000000000003B650100CF
:1060300000000000000000003D6501003F65010018
:1060400041650100416501002B8D010041650100A2
:106050004165010000000000FD860100416501006E
:106060004165010041650100416501004165010094
:106070004165010041650100416501004165010084
:10608000416501002F830100416501004165010068
:106090005183010041650100CF7A01004165010093
:1060A00041650100416501000000000000000000A2
:1060B00000000000000000000000000000000000E0
:1060C00000000000000000000000000000000000D0
:1060D00000000000000000000000000000000000C0
:1060E00000000000000000000000000000000000B0
:1064400000F002F800F02FF80CA030C8083824182B
:106450002D18A246671EAB4654465D46AC4201D19C
:1064600000F021F87E460F3E0FCCB646012633429F
:1064700000D0FB1AA246AB46334318471C2F00003E
:106480002C2F0000103A02D378C878C1FAD85207EE
:1064900001D330C830C101D504680C6070471FB506
:1064A0001FBD10B510BD02F027FF1146FFF7F7FF23
:1064B00000F0CAFB02F03FFF03B4FFF7F2FF03BC9A
:1064C00002F044FF401E00BF00BF00BF00BF00BF7E
:1064D00000BF00BF00BF00BF00BF00BF00BFF1D1C1
:1064E0007047000070B505460C46164602E00FCC1A
:1064F0000FC5103E102EFAD2082E02D303CC03C5CE
:10650000083E042E07D301CC01C5361F03E02178D5
:106510002970641C6D1C761EF9D270BD03210C48D5
:1065200002680A4302600B4802680A4302600A4894
:1065300080470A480047FEE7FEE7FEE7FEE7FEE782
:10654000FEE7000006480749074A084B704700006D
:106550002405004054050040156601004164010017
:106560004824002048340020482C0020482C0020DB
:1065700032483349086070473248008CC0B2012865
:1065800012D13048808C0007000F00280CD12D4814
:10659000806AF0210840402806D12A48C06A084095
:1065A000002801D1012070470020FCE72548008C1D
:1065B000C0B201282CD12348808C0007000F00288E
:1065C00026D12048806AF0210840002806D11D48C5
:1065D000C06A0840002801D1012070471948806A2C
:1065E000F0210840102806D11648C06A084000284B
:1065F00001D10120F1E71348806AF02108403028DA
:1066000006D11048C06A0840002801D10120E4E703
:106610000020E2E710B5FFF7C9FF002805D00A48BF
:106620000A494860C8130A498861FFF7A5FF002896
:1066300002D001200749886010BD00000024F4004A
:1066400000200020C00F00F0DFFF07C00005004061
:10665000006C00400006004030B513048C0023435A
:106660000524240707252D0264198500635130BDD8
:1066700000BFBFF34F8FF848F849C860BFF34F8F92
:1066800000BF00BFFEE703460C4622461946F44809
:10669000FFF7EEFF10B5122000F0F3FA132000F020
:1066A000F0FA10BD38B500BF0020EE4B05220221E4
:1066B000009001F051FE044600BF2346002B05D098
:1066C00000BFE9A2B1211846FFF7D2FF00BF00BF0B
:1066D00038BD3EB500BF6846007801090901491C74
:1066E000009168460078F02188431030009000BF88
:1066F0000B22E0A168467CDF044600BF2346002B46
:1067000005D000BFD8A2C5211846FFF7B1FF00BFD2
:106710000020019002900721684681803C21C180C1
:1067200000210181FF219131418101A87ADF0446D6
:1067300000BF2346002B05D000BFCBA2CF211846B7
:10674000FFF796FF00BF3EBD10B59EB00521019139
:10675000CB4800680090CB480178684681703821AA
:1067600010A802F0C4FD022110A801700021817060
:106770000121818001A91291382102A802F0B7FD00
:106780000121684601846946099102A910A800F018
:106790002DFF044600BF2346002B05D000BFB2A248
:1067A000EC211846FFF764FF00BF1EB010BDF8B51E
:1067B00007460D461646002403E0285D02F073FCF0
:1067C000641CB442F9DB0A2002F06DFCF8BD38B558
:1067D00000200090AC4800906946AA4800F0DEFB1B
:1067E000044600BF2346002B06D000BF9EA2FF2117
:1067F0000F311846FFF73CFF00BF38BD1E20A349EC
:1068000008800846807840084000401C8870084690
:106810008078022188439D498870084680781C2131
:1068200088430C3099498870084680782021884335
:10683000964988700720C87010200871704770B59D
:1068400005462878002810D13B219148008876DF42
:10685000044600BF2346002B06D000BF82A2FF21C2
:1068600033311846FFF704FF00BF70BD034600BF79
:106870007DA2FF213E311846FFF7FAFE10B588B021
:106880001C2101A802F033FD002001900520C00367
:1068900002900F2000040390032168460174002138
:1068A000418201757B4806907B48079001A800F063
:1068B00038FF044600BF2346002B06D000BF6AA263
:1068C000FF2155311846FFF7D3FE00BF08B010BDB9
:1068D00010B586B0142101A802F009FD0021684618
:1068E0000171002002906846017340218182B42129
:1068F000C18201A873DF044600BF2346002B06D0E7
:1069000000BF59A2FF216A311846FFF7B1FE00BF50
:10691000122000F0BFF906B010BD70B505462888FA
:10692000142850D008DC012878D010280BD011286A
:1069300013D0132873D11AE017283ED0192870D02D
:106940005228F7D126E0132000F0A4F9122000F01D
:10695000A6F9A8884E490880ABE0132000F09FF903
:106960000020C0434A490880FFF7B2FFA1E0474A30
:106970000021474800887FDF044600BF2346002BE4
:1069800006D000BF38A2FF218F311846FFF770FEF6
:1069900000BF8EE0002211463D480088A9DF044672
:1069A00000BF2346002B06D000BF2FA2FF21943149
:1069B0001846FFF75DFE00BF7BE03222A91D374875
:1069C00002F036FC75E0354EB61D3188E88981420B
:1069D00011D1002231462E48008881DF044600BFD5
:1069E0002346002B06D000BF1FA2FF21A03118466E
:1069F000FFF73EFE11E0002211462548008881DFA6
:106A0000044600BF2346002B06D000BF16A2FF217C
:106A1000A6311846FFF72CFE00BF4AE040E047E0F1
:106A2000FFE7A879002815D1122000F038F90322D9
:106A300011461020FFF710FE34DF044600BF234646
:106A4000002B06D000BF08A2FF21B6311846FFF781
:106A50000FFE00BF2DE000000400FA0500ED00E08D
:106A6000EFBEADDEBC2000202E2E5C6D61696E2E67
:106A7000630000004E6F726469635F5541525400B9
:106A800084930100A0200020AF67010006200020B1
:106A90000C2000203F6801006D680100D422002016
:106AA00081480078002802D101208049087000E068
:106AB00000BF00BF70BD10B50446204600F005FFC2
:106AC00021467B4800F044FA2046FFF726FF10BD20
:106AD00038B500BF002350227649082000F0AFFFF0
:106AE000054600BF2B46002B06D000BF724AFF218F
:106AF000DD311846FFF7BCFD00BF00BF002000904D
:106B00000090684660DF044600BF2346002B06D095
:106B100000BF694AFF21E4311846FFF7A9FD00BF15
:106B2000664800F0C2FF044600BF2346002B06D093
:106B300000BF614AFF21E8311846FFF799FD00BF09
:106B400038BD10B5032211461020FFF785FD10BD9A
:106B500010B540DF044600BF2346002B06D000BF1F
:106B6000554AFF21FA311846FFF782FD00BF10BDDC
:106B7000F8B50646304602F039FBC7B2002510E0F2
:106B8000705D02F090FA044600BF2346002B05D04A
:106B900000BF494A4A491846FFF76AFD00BF681C12
:106BA000C5B2BD42ECDBF8BD0178002904D0032951
:106BB00003D0042902D102E001E000E000BF00BFE1
:106BC000704710B586B000BF002005903D48019089
:106BD000202002903C4803902020049005A8032325
:106BE0003A4A01A900903A4802F026F9044600BF4B
:106BF00000BF2346002B06D000BF2F4A4721C90003
:106C00001846FFF735FD00BF06B010BD70B505464C
:106C10000E4632462946264800F000FA04462D4822
:106C2000844201D1002070BD082C0BD000BF234648
:106C3000002B06D000BF204A4921C9001846FFF7A3
:106C400017FD00BF0120EEE7FFF724FDFFF72AFD47
:106C5000FFF777FFFFF7B5FFFFF73AFFFFF739FDC3
:106C6000FFF7B5FDFFF770FDFFF708FEFFF7C6FD64
:106C700019A0FFF77DFFFFF72BFE00BFFFF768FFAE
:106C8000FCE703210522120707231B02D218830009
:106C9000D150704701218140134A91607047012112
:106CA0008140114AD16070470E2000200F20002043
:106CB000A020002008230020686A0100B76A0100B4
:106CC000070200005823002078230020A96B010050
:106CD00078930100043000005374617274205445AD
:106CE00053542E2E2E0A0000000500508A888282FE
:106CF00070470022D2438282704770B504460E4628
:106D0000B51D2988208A814213D1288B022810D1F1
:106D100000BF00BFA97EEA7E120211430846C107E8
:106D2000C90F002902D00120A0750FE00020A07536
:106D30000CE02888A188884208D1A069002805D0E5
:106D40002A8B29461A312046A369984770BD30B571
:106D50008FB004460D460020079000BF6846007FB4
:106D600001090901491C68460177007FF021884329
:106D700010306946087700BF00BF6846407F0109B0
:106D80000901491C68464177407FF0218843103053
:106D90006946487700BF6846807F06218843811C8A
:106DA000684681771C2108A802F0A1FA08A800789B
:106DB00010218843411808A80170002009900B9009
:106DC0000C9007A80D9000200E90217868468171E4
:106DD000032181800020009000BF684600780109EF
:106DE0000901491C684601700078F0218843103081
:106DF0006946087000BF00BF684640780109090174
:106E0000491C684641704078F0218843103069463B
:106E1000487000BF6846807806218843811C684618
:106E200081708078082188430146684681708078A7
:106E300010218843014668468170807841084900E6
:106E4000491C68468170142102A802F050FA01A87A
:106E500002906846039001210182002141821421A1
:106E60008182608823460C3302AA08A9A2DF0FB0F2
:106E700030BD30B58FB004460D461C2108A802F085
:106E800036FA08A8007808218843411808A801703C
:106E9000007804218843011D08A801700020099092
:106EA0000B900C900D900E90217868468172022113
:106EB00001810020019000BF6846007901090901A5
:106EC000491C684601710079F021884310306946F9
:106ED000087100BF00BF6846407901090901491CDB
:106EE000684641714079F021884310306946487105
:106EF00000BF6846807906218843811C68468171FD
:106F00008079082188430146684681718079102183
:106F10008843014668468171807941084900491CCF
:106F200068468171142103A802F0E1F902A80390D8
:106F300001A804900121684681820021C1821421A8
:106F400001836088231D03AA08A9A2DF0FB030BD0A
:106F500070B505460C46002D01D0002C00D170BD47
:106F60002088102804D0112807D0502812D109E019
:106F700021462846FFF7BAFE0DE021462846FFF7D6
:106F8000B8FE08E021462846FFF7B7FE0120384941
:106F9000087000E000BF00BF00BFE0E770B586B03A
:106FA00004460E46334B0FCB01AD0FC5002C01D06C
:106FB000002E02D10E2006B070BD0020C043A0827A
:106FC0003068A0610020A075214601A863DF054656
:106FD000002D01D02846EEE7217868468175012111
:106FE0008182A21C05A90120A0DF0546002D01D049
:106FF0002846E0E731462046FFF7A9FE0546002D6A
:1070000001D02846D7E731462046FFF732FF054634
:10701000002D01D02846CEE70020CCE737B584B05C
:1070200004460D46002C02D10E2007B030BDA08AC8
:107030001149884202D0A07D002801D10820F4E740
:107040006846008B142801DD0720EEE70020009041
:10705000019002900390A18968460180039506A8DB
:107060000290012168468170A08A6946A6DFDCE7AC
:107070000420002088930100FFFF0000F7B584B0D2
:1070800004460F4606980678B01C1F2803DC60787B
:10709000801C1F2802DD0C2007B0F0BD1F20801BC4
:1070A000801E85B20295B11C781802A97DDF03907D
:1070B0000398002801D00398EEE72078022808D131
:1070C00068460089A84204DC0920019068460589C9
:1070D0000BE0082001906078002804D06078A84276
:1070E00001DC657801E068460589681CC2B230465B
:1070F000711CCEB23A543046721CD6B20199395442
:1071000006980178A81C0818C1B2069801700020E2
:10711000C2E7F8B505460C462078001D1F2801DDA2
:107120000C20F8BD684679DF0646002E01D03046B7
:10713000F7E703212278501C2070A95419212278E6
:10714000501C2070A954207841196846008800F02E
:107150008AFA2178401820700020E2E7F8B5054649
:107160000F4616461C466868002801D10720F8BD66
:107170002078801C298840181F2801DD0C20F6E7A4
:107180002878401CC1B22278501C2070B15421785C
:10719000481C207077542A8823789819696802F06F
:1071A00047F820782978401820700020DFE730B5B4
:1071B00003461078C01C1F2801DD0C2030BD0224BE
:1071C0001578681C10704C550A241578681C1070CE
:1071D0004C551578681C10704B550020EEE7FFB534
:1071E00087B006461D46109C00200690207805902A
:1071F000002747E0B900706841180A886846028194
:1072000049884181002203A902A865DF04900498FF
:10721000002802D004980BB0F0BD6846017B0998A5
:1072200081422ED10698002801D0002000E00220E3
:10723000019020786946097B4118019808181F2899
:1072400001DD0C20E7E70698002809D12078401CD2
:1072500020702278511C08982170A85401200690B3
:107260002078421903A902A865DF04900498002839
:1072700001D00498CFE720786946097B4018207038
:1072800000BF7F1C3088B842B4DC0698002806D0C6
:1072900021780598401C081AC1B20598295400208D
:1072A000B9E7FFB581B0074615460A9E009602224F
:1072B0003846049B0299FFF792FF0446002C02D047
:1072C000204605B0F0BD0096102229463846049BA2
:1072D000FFF785FF0446002C01D02046F1E700208F
:1072E000EFE701460888062808DB08881922D20142
:1072F000904205DD0888E04A904201D0072070479F
:107300004888062808DB48881922D201904205DD0A
:107310004888D94A904201D00720F0E70888D64A29
:10732000904208D04888904205D008884A88904208
:1073300001DD0720E3E70020E1E7F8B506460D464A
:1073400014462078801D1F2801D90C20F8BD304636
:10735000FFF7C7FF0746002F01D03846F6E70521A3
:107360002278501C2070A95412212278501C2070C1
:10737000A95422785119308800F075F92178401805
:10738000207022785119708800F06DF9217840182A
:1073900020700020DAE7F8B505460E461446287935
:1073A000801CC7B22078801CC0191F2801DD0C206A
:1073B000F8BD781CC1B22278501C2070B154FF2156
:1073C0002278501C2070B15422789119288800F03E
:1073D0004AF9217840182070A88800280EDDA86896
:1073E000002801D10720E3E7AA8823789819A96823
:1073F00001F01EFF20782979401820700020D7E77F
:10740000FEB507460E461446386B002801D107200A
:10741000FEBD0020019032E0396B0C2201985043F0
:107420000D182879801CC0B200900098401CC1B291
:107430002278501C2070B15416212278501C2070E4
:10744000B15422789119288800F00DF9217840185C
:107450002070A88800280EDDA868002801D1072028
:10746000D6E7AA8823789819A96801F0E1FE207868
:107470002979401820700198401CC0B20190342036
:10748000C15D01988142C7DC0020C1E7F8B5044620
:107490000F4616460025002030702078002809D0BD
:1074A000324639462046FFF7E9FD0546002D01D05A
:1074B0002846F8BDA078002808D031463846FFF7A6
:1074C00028FE0546002D01D02846F2E7A0880028B6
:1074D0000ADD33463A460121201DFFF73FFE0546EF
:1074E000002D01D02846E4E7E06800280BD00020FA
:1074F000E168085632463946FFF759FE0546002D29
:1075000001D02846D5E7208A00280CDD3B4606221C
:107510000221204610300096FFF7C3FE0546002DDD
:1075200001D02846C5E7208B00280CDD3B4607220A
:107530000321204618300096FFF7B3FE0546002DC4
:1075400001D02846B5E7208C00280CDD3B461522EB
:107550001421204620300096FFF7A3FE0546002D9B
:1075600001D02846A5E7A06A002809D0324639464E
:10757000A06AFFF7E2FE0546002D01D0284698E7F5
:10758000E06A002809D032463946E06AFFF703FF77
:107590000546002D01D028468BE73420005D0028E9
:1075A00009DD324639462046FFF72AFF0546002D01
:1075B00001D028467DE728467BE7014688880028D9
:1075C00008D08868002805D0886800780422104018
:1075D000002801D1072070470020FCE70146888879
:1075E000002801DD072070470020FCE7F3B593B0C9
:1075F0000D460021129111911398002814D0139870
:10760000FFF7DBFF0446002C02D0204615B0F0BD8A
:1076100012AA09A91398FFF739FF0446002C01D0DC
:107620002046F3E709AE00E00026002D13D02846DF
:10763000FFF7D4FF0446002C01D02046E6E711AA4C
:1076400001A92846FFF722FF0446002C01D020465E
:10765000DCE701AF00E0002710A803793A46017A81
:10766000304672DFD2E702460A70FF200002104067
:107670000012487002207047FFFF00000146488852
:10768000B74A1288904206DB4888B54A5288904231
:1076900001DC012070470020FCE738B50546B14801
:1076A0000088B14988423BD0B0480078401CAF49BF
:1076B0000870AF48007B097888420FDBA849A948C9
:1076C000008875DF0446002C07D0A948806900288F
:1076D00003D0A74881692046884721E00020A349BC
:1076E0000870A348007C00280FD03B219D480088EB
:1076F00076DF0446002C07D09D488069002803D01F
:107700009B4881692046884700BF99484069002806
:1077100006D000200090964841696846884700BF1F
:1077200038BD70B505461C2229469148FEF7DAFEA1
:10773000002090490870286800280BD0082288484B
:10774000296801F075FD86487ADF0446002C08D0D0
:10775000204670BD82487BDF0446002C01D02046C5
:10776000F7E70020C0437F49088000207F49087068
:10777000814A0021814800F06CFEEAE710B57F489D
:10778000006800F0DEFE10BD38B57D48FFF776FFDB
:10779000002829D17748007800280AD07448406929
:1077A000002820D000200090714841696846884731
:1077B00019E06E480078002802D16D48456801E064
:1077C0006B488568002229466C48006800F088FEF6
:1077D0000446002C07D066488069002803D064481E
:1077E0008169204688470AE061484069002806D040
:1077F000012000905E4841696846884700BF00202C
:107800005C49087038BD10B50446A0885549088009
:10781000082221460E315A4801F00AFD0020534942
:1078200008705348C089002801D1FFF7ADFF10BD93
:1078300070B505460020C0434A49088000204B49E6
:1078400008704E48006800F07CFE0446002C07D00B
:1078500047488069002803D0454881692046884709
:1078600070BD70B50546AC1D20884149C989884264
:1078700020D1208B02281DD100BF00BFA17EE27E57
:10788000120211430846C107C90F002902D0FFF7B1
:107890007BFF0FE03948006800F053FE0646002EDB
:1078A00007D033488069002803D0314881693046C9
:1078B000884700BF70BD10B504460822A11D30489E
:1078C00001F0B6FCFFF760FF10BD10B5044620883C
:1078D000102806D0112808D012280ED0502810D118
:1078E00007E02046FFF78FFF0CE02046FFF7A0FFE0
:1078F00008E02046FFF7B5FF04E02046FFF7DBFF76
:1079000000E000BF00BF10BD38B504460822214684
:10791000134801F08DFC12487ADF0546002D1CD17A
:107920001748FFF7ABFE00280BD101201149087062
:107930000B490C48008875DF054601200B4908708B
:107940000BE00B484069002806D001200090084851
:1079500041696846884700BF0025284638BD0000B9
:107960002820002032200020FFFF000030200020CF
:10797000AC230020402000209B7601003C2000200A
:107980003420002070B506460C4615462946204690
:10799000FEF779FE70BDF8B55A480078002800D18E
:1079A000F8BD59480068002801D1012000E00020FE
:1079B000054656480068002801D1012000E000205B
:1079C000064600BF002D14D1684651DF0446052C41
:1079D00001D101250CE0002C06D000BF4CA269218A
:1079E0002046FEF745FE03E04749009809688847AE
:1079F00000BF002E1AD154480088009069465348B1
:107A0000006861DF0446052C01D101260DE0002C41
:107A100006D000BF3EA280212046FEF729FE04E0EA
:107A20004A48006839490968884700BF002D02D0DC
:107A3000002E00D000E0C5E700BF00BFB0E7FFB5F3
:107A400081B00C4616461F46002C02D1072005B017
:107A5000F0BD20468107890F002901D1012100E0F6
:107A60000021002901D10720F1E738480460364899
:107A70000680374807603749019810DF0546002D1A
:107A800001D02846E3E701201E490870162026DFB2
:107A9000DDE710B511DF0446002C01D0012000E025
:107AA000002018490870204610BD0146002901D168
:107AB0000E207047154801600020FAE701460029B2
:107AC00001D10E207047104801600020FAE770B520
:107AD0001F480068002811D01D48006880470446F0
:107AE00000BF2546002D07D000BF09A2FF2133317A
:107AF0002846FEF7BDFD00BF00BF01E0FFF74BFFCA
:107B000070BD00004E200020542000205020002096
:107B10002E2E5C2E2E5C2E2E5C2E2E5C2E2E5C2E9F
:107B20002E5C536F757263655C73645F636F6D6D1C
:107B30006F6E5C736F66746465766963655F6861B8
:107B40006E646C65722E63004C200020482000207B
:107B5000442000208579010010B5002819DAFB4A7D
:107B600003071B0F083B9B089B00D2588307DC0EC2
:107B7000FF23A3409A438B071B0E8407E40EA34008
:107B80001A43F24B0407240F083CA408A4001A511E
:107B900018E0EF4A03231B02D21883089B00D25837
:107BA0008307DC0EFF23A3409A438B071B0E840739
:107BB000E40EA3401A43E64B032424021B19840855
:107BC000A4001A5110BD10B50446E2488460032198
:107BD0001120FFF7C1FF10BD10B501200004DE49E0
:107BE0004860DD4940394860112000F0F5FC112063
:107BF00000F0E4FC0120D94908602F20FEF762FC68
:107C00000120D749087010BD10B511200121814015
:107C1000CF4A8032116000BF01200004CE49886045
:107C2000CD49403988600120CC4948602F20FEF7BB
:107C300049FC0120C94988600020CA4908602F20FA
:107C4000FEF740FC0020C649087010BDF0B50246A2
:107C500024205043C44B1B68C118C4480068401C12
:107C6000002802D1C148026059E0C0484B68006852
:107C700024246043BC4C246800194068834217D810
:107C8000BA48006824235843B74B1B68C0184068A3
:107C90004B68C31AB548006824246043B24C24687A
:107CA00000194360B14800680862B048026036E0DD
:107CB0004B68AE4D2C6828680DE024254543AA4E3C
:107CC0003668AD196D685B1B044624254543A64EF6
:107CD0003668AD19286A451C002D07D02425454378
:107CE000A14E3668AD196D689D42E6D3451C002D46
:107CF0000CD0242545439C4E3668AD196D68EE1AAC
:107D000024254543984F3F68ED196E604B6008622B
:107D100024256543944E3668AD192A6200BFF0BD34
:107D2000F8B50646914805682C4609E0B44200D1F2
:107D300009E02546242060438B4909684018046AFD
:107D4000601C0028F2D100BF601C002800D1F8BDE3
:107D5000A54210D18548006824214843824909681A
:107D60004018006A8149086008460068401C0028E5
:107D700001D1FFF749FF242060437B49096840187F
:107D8000476824206043784909684018016A242024
:107D90006843754A1268801801622420684372495A
:107DA00009684018046A601C00280CD02420604335
:107DB0006D49096840184068C119242060436A4A27
:107DC00012688018416000BFC1E710B5112000F0B3
:107DD000FCFB10BD10B5142000F0F7FB10BD70B512
:107DE000044663480068002813D0614AE169A0692D
:107DF00012689047054600BF2E46002E07D000BFF0
:107E00005CA2FF2164313046FEF732FC00BF00BFA8
:107E100002E0A169E069884770BDF8B55348006881
:107E2000401C00283AD0002700F008FC04464D48CA
:107E30000168204600F005FC06464C48056811E044
:107E4000242068434849096844186068B04200D952
:107E50000BE06068361A6068C719256A2046FFF78C
:107E6000BEFF00BF681C0028EAD100BF4D48007863
:107E70004D490978884209D14B480078401CC0B26E
:107E800049490870022801D100200870464800784E
:107E9000800046490F50FFF79DFF00BFF8BD014627
:107EA00040480078404A127890421DD03D48007802
:107EB000401C3C4A107010460078022801D1002076
:107EC0001070384800788000384A10580860254AF9
:107ED000086812688018234A106010460068000283
:107EE000000A1060012070470020086000BFFAE718
:107EF000FEB51E48006801902D480078009076E09D
:107F00000098C0002B490968441825786BE01820B8
:107F1000684361680F18681CC5B2A078A84200D1F8
:107F200000253878022802D0032859D144E02421C2
:107F3000786848430C4909684618307D002804D009
:107F40007868FFF7EDFE002030754AE01CED00E098
:107F500000E100E000150140401301400010014025
:107F6000802000206C2000205C2000206820002061
:107F70007C2000202E2E5C2E2E5C2E2E5C2E2E5C65
:107F80002E2E5C2E2E5C536F757263655C61707073
:107F90005F636F6D6D6F6E5C6170705F74696D654E
:107FA000722E6300782000207920002070200020AD
:107FB00060200020642000200CE0F8490968242299
:107FC0005143F74A1268881800210175F34A016A83
:107FD000116000BFF1480068401C0028EDD100E0AE
:107FE00000BF00BF00BF6078A84290D100BF0098DA
:107FF000411EC9B20091002882D1E8480168019869
:10800000814201D00120FEBD0020FCE7F0B503460F
:10801000002426E0E14E366824277E43E04F3F6887
:10802000F01946689E4203D94668F61A46601DE07C
:1080300046689B1B46683419002646600675D74E75
:108040003568D64F066A3E600669002E08D00E19C4
:108050003602360A86600669C660166806621560D2
:1080600000BFCE480068401C0028D3D100BFF0BD3F
:10807000FEB50746C94800680290CA4800780190DA
:108080006BE00198C000C849096845185DE0781C9C
:10809000002807D03E4624207043C149096844188F
:1080A000276A23E02978182359436A6850182978E9
:1080B000491C29702978AA78914201D100212970A0
:1080C000466824217143B64A12688C180178012948
:1080D00002D1217D002900D037E08168A160C1680C
:1080E000E160016921614169E16100BFAF49A068B8
:1080F0000968401A0002000AAD49884208D2AB491B
:10810000A068096800F09DFAE1684018606011E01D
:10811000A648A168006800F094FA0090E168009811
:10812000814204D9E1680098081A606001E00020EB
:10813000606000BF0020A060E06001202075801E0C
:1081400020623046FFF782FD00BF781C00289ED1D8
:108150002878697888429AD100BF0198411EC9B237
:10816000019100288DD18D4801680298814201D08B
:108170000120FEBD0020FCE7FEB588480068401CD9
:10818000002834D085480068242148438449096880
:108190004018456800F052FA01908448046821466E
:1081A000019800F04EFAC61C82480078002801D1E0
:1081B000FFF712FDAE4201D2284600E03046041916
:1081C0002402240A20467C49086000BF00F036FAE9
:1081D00000900199009800F034FAC71C20460199DC
:1081E00000F02FFA874201D9FFF7EFFD01E0FFF71A
:1081F0000BFDFEBDFEB50020C04301906B48046836
:10820000664807686846FFF74AFE0546FFF770FEB6
:108210000646002D05D001AA21460098FFF7F6FE7C
:1082200001260198FFF724FF002800D00126002E28
:1082300002D03846FFF7A0FFFEBD4170704770B511
:1082400002460B465078411C9078884200D10021AC
:108250001078884201D1002070BD1960507818262E
:10826000704355682C182046F6E7FFB581B00546E7
:108270000E461746E9004C4A126888186946FFF70F
:10828000DEFF0446002C02D1042005B0F0BD012021
:108290002070666000F0D2F9A060E7600498206169
:1082A0000A986061E900404A126888180099FFF74F
:1082B000C4FFFFF78FFD0020E7E7F8B504460E4640
:1082C000E100394A126888186946FFF7B8FF054689
:1082D000002D01D10420F8BD022028706E60E1005D
:1082E000314A126888180099FFF7A7FFFFF772FD5F
:1082F0000020F0E738B50446E1002B4A12688818E0
:108300006946FFF79CFF0546002D01D1042038BDCA
:1083100003202870001F6860E100234A1268881853
:108320000099FFF78AFFFFF755FD0020EFE710B532
:108330000020224908600021204841608160C1601E
:1083400000201E49403908604860FFF766FD10BDF7
:1083500010B5FFF74FFF10BDFFB581B00E461746B1
:108360001C4620468107890F002901D1012100E028
:108370000021002902D1072005B0F0BD002C01D159
:108380000720F9E7FFF740FC0D490A9808600D48FF
:10839000067003480460002523E0000068200020E8
:1083A0005C20002060200020642000206C20002041
:1083B000FFFF7F0080200020401501404011014058
:1083C0007C200020582000200021242068439F4A60
:1083D00012681154242068439C4A12688018017561
:1083E0006D1CB542F0DB242070430419032098492A
:1083F000087098480460183400250CE0E900954A9C
:10840000126888180021017041708770446018213B
:1084100079430C196D1C032DF0DB0020C0438E49FD
:10842000086000208D4908708D490870142000F004
:10843000D3F803211420FFF78FFB142000F0BEF8BF
:108440000198FFF7C0FB00F0F9F8864908600020AA
:1084500092E770B503460C467C480068002801D1BD
:10846000082070BD002A01D10720FAE7002B01D1B6
:108470000720F6E700211CE024204843734D2D68B7
:10848000285C002814D10125242048436F4E36680B
:108490003554242048436D4D2D68401944702420E4
:1084A00048436A4D2D684019826119600020D8E761
:1084B000491C6D4800788142DEDB0420D1E710B50D
:1084C00000F092F8012802D0032804D101E0002432
:1084D00003E0012401E0022400BF00BF204610BDDC
:1084E000FEB504460D46164658480068002801D1DE
:1084F0000820FEBD5C480078844201D2052D01D2DF
:108500000720F6E72420604350490968085C0128E9
:1085100001D00820EDE7242060434C490968401849
:108520004078012801D1284600E000200746FFF7E7
:10853000C6FF3B462A46214600960190FFF795FE6E
:10854000D7E770B5044641480068002801D10820EB
:1085500070BD45480078844201D30720F8E7242005
:1085600060433A490968085C012801D00820EFE718
:10857000FFF7A5FF05462146FFF79FFEE8E710B588
:1085800032480068002801D1082010BDFFF797FF8E
:108590000446FFF7AFFEF8E710B5044600F04EF8CA
:1085A0002060002010BD70B505460E4614463146C9
:1085B000284600F046F82060002070BDC206D20EAA
:1085C00001219140294A11607047C206D20E012153
:1085D0009140274A11607047C206D20E0121914096
:1085E000234A80321160704710B522484068C105A7
:1085F000C90D002920D00A46103A50B200280DDAE1
:108600001C4B1C330407240F083CA408A4001B596E
:108610008407E40EE3401B069B0F0BE0134B03247F
:1086200024021B198408A4001B598407E40EE340AC
:108630001B069B0FD8B210BD0420FCE70E48406813
:1086400070470246501A0002000A70475C20002062
:108650006020002064200020682000207820002076
:10866000792000206C2000205820002000E100E04C
:1086700000E200E000ED00E000150140F0B5024628
:108680000C46002037E001238340194623460B4067
:10869000002B2FD0D5680D40002D05D101235B04A0
:1086A000D5680D43D56004E003231B04D5688D43D2
:1086B000D56005252D0707263602AD198600AD5970
:1086C00003263604B5430526360707273F02F61969
:1086D0008700F55105252D0707263602AD198600BE
:1086E000AD591D430526360707273F02F6198700B7
:1086F000F55100BF401C2028C5D3F0BDF0B585B0B2
:10870000EF4805690020EF49C86300263FE01420C8
:108710007043ED49096844180120B040EB490968ED
:108720000840002831D0E068C04368402168084014
:10873000074639462046FFF7A1FFE1480069684037
:108740000390039800280ED003980543E068C043C7
:10875000684021680840009020460099FFF78EFF8E
:108760000098074300BFA068A843384001906068A4
:10877000284038400290019902980843002803D00D
:10878000226901990298904700BF701CC6B2D04878
:1087900000788642BBDB05B0F0BD10B50146002075
:1087A00029E014224A43C84B1B689A58012383408E
:1087B0001A40002A1ED00522120707231B02D218D6
:1087C0008300D25803231B049A4305231B07072465
:1087D00024021B1984001A510522120707231B02C9
:1087E000D2188300D25805231B07072424021B1923
:1087F00084001A51401C2028D3D310BD70B5054603
:108800000C46002C01D1072070BD20468107890F3E
:10881000002901D1012100E00021002901D1072018
:10882000F2E7A9480460AB4805700020A849087029
:10883000A6490860A7480078142250430146A24880
:10884000006800F054FD0020C043A3498860062062
:1088500001218140A14A116000BF012100F0F9F817
:108860000620012181409E4A116000BF0020CBE715
:10887000F8B504460D4616461F4693480068002882
:1088800001D10820F8BD002F01D10720FAE7904858
:10889000007890490978884201DB0420F2E72846F5
:1088A00030438B49097814225143874A126850504B
:1088B0008748007814214843834909684018456077
:1088C00083480078142148437F490968401886602E
:1088D0007F480078142148437B49096840180761A4
:1088E0007B48007820707A480078401C78490870EE
:1088F0002078FFF752FF0020C4E7F0B50246724827
:108900000068002801D10820F0BD7148007882423B
:1089100001DB0720F8E700206A4BD8636848046948
:108920006A480068002802D158066B4B5860012045
:108930009040664B1B681843644B1860002314205A
:108940005043614D2D684019C360002142E001236E
:108950008B401846142353435B4D2D68EB5803405E
:10896000002B36D025460540002D02D003231B04E2
:108970000EE001235B0414255543534E3668AD19B0
:10898000ED680543142656434F4F3F68F619F560CE
:1089900005252D0707263602AD198E00AD59032691
:1089A0003604B5430526360707273F02F6198F0020
:1089B000F55105252D0707263602AD198E00AD5954
:1089C0001D430526360707273F02F6198F00F5518C
:1089D00000BF491C2029BAD3002095E710B50446F2
:1089E00039480068002801D1082010BD38480078B7
:1089F000844201DB0720F8E72046FFF7CEFE012086
:108A0000A04032490968814330480160006800286D
:108A100003D10120C007304988600020E5E710B588
:108A2000024629480068002801D1082010BD2848C6
:108A30000078824201DB0720F8E714205043224CE3
:108A4000246803191E4800691C6820400860002043
:108A5000ECE710B5002819DA224A03071B0F083B80
:108A60009B089B00D2588307DC0EFF23A3409A4348
:108A70008B071B0E8407E40EA3401A43194B04070F
:108A8000240F083CA408A4001A5118E0144A032338
:108A90001B02D21883089B00D2588307DC0EFF23E9
:108AA000A3409A438B071B0E8407E40EA3401A438E
:108AB0000B4B032424021B198408A4001A5110BD77
:108AC00000050050406100408C20002084200020E0
:108AD00089200020882000200063004080E200E020
:108AE00000E100E01CED00E00346002901D10E206A
:108AF0007047002A03D0501E1040002801D00920E2
:108B0000F6E71960501E988000209860D86000BF7A
:108B1000EEE70246D0689368C01A9388984209D855
:108B2000D0689388184013681954D068401CD060EE
:108B3000002070470420FCE70246D0689368C01A02
:108B40000AD09068938818401368185C0870906881
:108B5000401C9060002070470520FCE70146C86873
:108B600088600020704700000020FC490870012048
:108B7000FB49C86048600020FA49086070471CB58E
:108B80000120F749C860F54908700320694608705C
:108B90006846F549096888471CBD08B5EF48007864
:108BA000022802D00120EE4988606946EF48FFF7AD
:108BB000C3FF002802D0FFF7E2FF08BD8020EC4988
:108BC000886068460078E749C8610220E349087078
:108BD0008020E749486000BFEFE710B5E348C06870
:108BE000E2498968401A02D0FFF7D7FF01E0FFF79A
:108BF000C6FF10BD10B5D9480078012802D0022860
:108C000007D102E0FFF7B0FF04E00320D34908706A
:108C100000E000BF00BF10BD10B5D04800780028AC
:108C200002D0032817D112E00420CE4908600120A9
:108C3000CB490860CD48C068CC498968401A02D049
:108C4000FFF7ABFF02E00120C449087004E00220F6
:108C5000C249087000E000BF00BF10BD10B5BF489A
:108C60000078012807D0022804D0032806D1FFF796
:108C70007BFF04E000BFFFF7B0FF00E000BF00BFD4
:108C800010BD10B5B5480078012801D1FFF785FF68
:108C900010BD10B5FFF768FF10BD10B504462300E6
:108CA00000F05BFB0504070D0A101300FFF7A2FF9D
:108CB0000CE0FFF7B1FF09E0FFF7D0FF06E0FFF798
:108CC000E0FF03E0FFF7E5FF00E000BF00BF10BDDD
:108CD000F8B504460D4628462040A64909680840D4
:108CE00000280FD06946A4480078FFF798FE064692
:108CF000002E00D0F8BD0098044028460099884313
:108D0000054600BF9B4800682840002803D001208A
:108D1000FFF7C3FF07E0974800682040002802D013
:108D20000020FFF7BAFF00BFE4E71CB59348806856
:108D3000002830D00020914988609148C06890494F
:108D40008968401A8E498988884220D2854880697E
:108D5000C1B28B48FFF7DDFE0446002C08D001208D
:108D600069460870019468467F490968884711E0A0
:108D70008348C06882498968401A01280AD10020C6
:108D800069460870684678490968884702E001200A
:108D90007C49087000BF7948C069002805D00020D0
:108DA0007649C8610320FFF778FF7448406A0028BD
:108DB0000FD00020714948626A4880380468046016
:108DC0000220694608700194684667490968884727
:108DD00000BF1CBD0420634908600020674988600B
:108DE000C86160484030C06A400840005D49403179
:108DF000C8620020C0435B4988600861012058496F
:108E00008860086070470421564A116000215B4A5F
:108E10009160D16153494031C96A01221143514ADD
:108E20004032D162C1784F4A11618178916001214D
:108E30004B4A916011607047FFB585B004460F46FC
:108E40000E9D0020039002904449087046490798FF
:108E50000860002F02D1072009B0F0BDB88882B2A7
:108E600047483968FFF740FE0646002E01D03046DD
:108E7000F2E7B88982B23D48B968FFF735FE064689
:108E8000002E01D03046E7E7607800F090F92078B6
:108E900000210191019989000522120707231B0275
:108EA000D2188300D15000BF60782E49C860207866
:108EB0004861A06848626079002804D00E202949E2
:108EC0004031C86203E0002026494031C862207961
:108ED000022876D1A07800F06AF9A17801208840B4
:108EE000294948600020C0431E490861A078886075
:108EF0001C484030C06A012108431A494031C86209
:108F0000E178012088401B490860E07800220321B5
:108F10000092019101990904009A920011430522DF
:108F2000120707231B02D2188300D15000BFE1783B
:108F3000012088400390E178012088400290288831
:108F400000282BD1114B0C48029A0399FFF790FC93
:108F50000646002E1CD030467EE700009C200020F4
:108F6000002000400025004098200020D823002049
:108F70000023004094200020912000200021004088
:108F8000C82300209D20002000050050D18C010046
:108F90008B4800780002FF30288008E02888FF28EE
:108FA00001DA072058E7288800128549087004A9CB
:108FB00083480078FFF733FD0646002E02D0304686
:108FC0004AE717E07E480078FFF797FC0646002E38
:108FD00001D0304640E7E1780120884004990840FC
:108FE000002803D10120FFF758FE28E00020FFF7FA
:108FF00054FE24E02079012811D12888002807D1C7
:109000007048007828806F480078401C6D490870CF
:109010002046FFF7F8FE01206B4908700FE0288812
:10902000002807D167480078288066480078401CEF
:1090300064490870FFF7CEFE0120634908700020E4
:10904000C04362498860A12080004860022001215D
:1090500081405F4A116000BF089900F06FF802205C
:1090600000F064F80020F7E670B504460220012104
:109070008140584A116000BF21465748FFF75CFD08
:10908000054656480078002808D055488069C1B286
:109090005148FFF73EFD002050490870022000F0C3
:1090A00045F8284670BD70B5044621464D48FFF787
:1090B00030FD05460220FFF7F0FD284670BD10B5D3
:1090C0004548FFF74BFD0446002C01D0204610BD5B
:1090D0004448FFF743FD0446002C01D02046F6E744
:1090E0000020F4E7014638480078002801D001202C
:1090F00000E0002008700020704770B50446FF2C87
:1091000004DA0420FFF7C9FD002070BD2004050E1D
:109110002B480078854201D00720F6E70420FFF7AE
:10912000BCFD27480078FFF759FCEEE7C206D20ED7
:1091300001219140274A803A1160704710B50028FC
:1091400019DA294A03071B0F083B9B089B00D258DA
:109150008307DC0EFF23A3409A438B071B0E840773
:10916000E40EA3401A43204B0407240F083CA40834
:10917000A4001A511AE0174A803A03231B02D2189E
:1091800083089B00D2588307DC0EFF23A3409A4339
:109190008B071B0E8407E40EA3401A430D4B803B44
:1091A000032424021B198408A4001A5110BD0321B2
:1091B0000522120707231B02D2188300D1507047E3
:1091C00091200020902000209C20002000230040BF
:1091D00080E200E080E100E0C82300209D20002024
:1091E00000250040D82300201CED00E030B5441CD1
:1091F00003E00178401C00290DD08107F9D10B4B09
:10920000DD0104C8D11A91432940FAD0001B0A0697
:1092100003D0C01E30BD001B30BD0A0401D0801E2B
:1092200030BD0902FCD0401E30BD0000010101012B
:10923000F8B5042A2CD3830712D00B78491C03708D
:10924000401C521E83070BD00B78491C0370401C36
:10925000521E830704D00B78491C0370401C521E19
:109260008B079B0F05D0C91ADF002023DE1B08C91E
:109270000AE0FDF737F9F8BD1D4608C9FD401C4658
:10928000B4402C4310C0121F042AF5D2F308C91AA7
:10929000521EF0D40B78491C0370401C521EEAD4B5
:1092A0000B78491C0370401C012AE4D40978017032
:1092B000F8BD01E004C0091F0429FBD28B0701D5CA
:1092C0000280801CC90700D00270704700290BD0B3
:1092D000C30702D00270401C491E022904D3830731
:1092E00002D50280801C891EE3E70022EEE70022FF
:1092F000DFE7704770477047754600F023F8AE46C9
:10930000050069465346C008C000854618B020B520
:10931000FDF718F960BC00274908B6460026C0C50D
:10932000C0C5C0C5C0C5C0C5C0C5C0C5C0C5403D1D
:1093300049008D4670470446C046C0462046FDF7AA
:10934000BBF8000000487047E823002001491820BE
:10935000ABBEFEE726000200704730B47446641EC0
:109360002578641CAB4204D3635D5B00E31830BC1A
:1093700018471D46F8E700000B09080A0000000026
:1093800000502700010000009ECADC240EE5A9E081
:1093900093F3A3B50000406EA893010000200020C5
:1093A000A0000000846401000024F400000000001C
:1093B00000000000FFFF01005468697320697320FA
:1093C0003230000000000000000000001400000027
:1093D000000000000000000000000000000000008D
:1093E000000000000000000000000000000000007D
:1093F000000000000000000000000000000000006D
:10940000000000000000000000000000000000005C
:10941000000000000000000000000000000000004C
:10942000000000000000000000000000000000003C
:10943000000000000000000001000000000000002B
:08944000000000000000000024
:040000050001644151
:00000001FF
